:02000000C8290D
:10000800FF00030E8301B3000A08B4008A017008D8
:10001800A1007108A0000B1D18280030AC070130A2
:100028000318013EAD070B110C1C33282E080E3C9B
:1000380003183128AE0101082C07F0002D08031819
:10004800013EF1007008AC007108AD007008AF0007
:100058007108B000AC01AD018101AE0A0C10210895
:10006800F0002008F10034088A00330E8300FF0EE8
:040078007F0E0900EE
:10007C00710DF80DF90D7408F8027508031C750F55
:10008C00F902F00DF10D0F30FC00710DF80DF90DAA
:10009C007408701C5728F8027508031C750FF902B8
:1000AC005C28F80775080318750FF907F00DF10DAA
:1000BC00FC0B4B28701868287408F807750803188F
:0800CC00750FF90700000800A0
:1000D400831203137008F100F0010830FC0071086A
:1000E400F40C03187928FC0B7228F1010034031076
:1000F4007E28F40C0318F107F10CF00CFC0B7B28A0
:020104000800F1
:0E0106008312031332088A00310882000800B9
:10011400831203137408003A031D99287508003AE2
:10012400031D9928FF30F0007F30F100F22883127C
:100134000313FD01F901F801710870040319003477
:1001440071087506FA00FA1BFD09FB01F51FAF28BB
:10015400F409F509F40A0319F50AF11FB628F009A0
:10016400F109F00A0319F10A71087504FA00FA1B7F
:10017400CB283E207B18DE28FD1F0034F009F1094E
:10018400F00A0319F10AF809F909F80A0319F90A36
:100194000034F51FDA28F11BD6287108F90070081D
:1001A400F800F101F001BE28F101F001F00A003479
:1001B400F109F009FB0ABB28F80A0319F90A7408C3
:1001C4007802031DBE2875087902031DBE28F901B3
:1001D400F801F00A0319F10AF11FBE280000FF34E8
:0201E400080011
:1001E60083120313FB01FA01F9018030F800F10CC8
:1001F600F00C031C07297408F90775080318750F16
:10020600FA070318FB0A0310F01F0F297408FA07F0
:1002160075080318750FFB07FB0CFA0CF90CF80CA4
:10022600031CFA287B08F3007A08F2007908F1002B
:060236007808F00008004A
:10023C00E83083120313F4000330F5002F08F000AC
:10024C003008F1008A207008B8007108B90038082D
:10025C00B500E830F4000330F5002F08F00030084A
:10026C00F1008A207808F0007908F1006430F4007D
:10027C000030F5008A207008BA007108BB003A08FB
:10028C00B600E830F0000330F1003808F400F50156
:10029C00F3207008B8007108B9006430F0003A0817
:1002AC00F4006A203808F00739080318013EF107FA
:1002BC0070082F02B8007108031C013E3002B9000F
:1002CC000A30F4000030F5003808F0003908F1006D
:1002DC008A207008B7000A30F4000030F5003808A6
:1002EC00F0003908F1008A207808F0007908F10054
:1002FC008801870188147008223E8400000887005A
:10030C000230FC004B30FD00FD0B8A29FC0B8A29C6
:10031C00881008143708223E840000088700023039
:10032C00FC004B30FD00FD0B9929FC0B99290810A2
:10033C0008153608223E8400000887000230FC00B5
:10034C004B30FD00FD0BA829FC0BA82908118815C2
:10035C003508223E8400000887000230FC004B3038
:0C036C00FD00FD0BB729FC0BB7290800B1
:1003780083208A110A128000840AB10A0319B20A7A
:08038800F003031DBC2908006D
:10039000093083120313A200AF30A3003130A40050
:1003A0002330A5008730A6004330A7004130A800C5
:1003B0002F30A9000130AA000730AB00AC01AD011D
:1003C000AE01AF01B00183168116011681158312AB
:1003D0001014901090121012831601118110011048
:1003E0008B170B178B160C1487018801831287015A
:0C03F00088018F018E011E21FB29FD29D0
:04400E00F22F000786
:00000001FF
