:02000000D72BFC
:100006007B15FB1F0D280130F300F201F101F00111
:08001600FA0DF20CFF300800A6
:0E001E00F201F101F001F801F30100300800D9
:08002C00FA1FF2130030080076
:10003400FB14FB1F2428FF30F300F200F100F00052
:08004400FA0DF20CFF30080078
:10004C00A0017208031D3B287108F2007008F10032
:10005C00F001A0157208031D3B287108F200F10194
:10006C00A01120167208031949282008F302031D59
:10007C00031C4D280310F21B5128F00DF10DF20D4D
:10008C00F30B41284D280130FC000F20542802307E
:0E009C00FC00032054280430FC00162008004D
:1000AA007C188B28FC185C287C19AA285528A001E2
:1000BA007208031D7C287108F2007008F1007808A4
:1000CA00F000F801A0157208031D7C287108F200DF
:1000DA007008F100F001A01120167208031D7C2897
:1000EA007108F200F101A015720803199E28200870
:1000FA00F302031D031CA2280310F21B8B28F80D20
:10010A00F00DF10DF20DF30B8228A2287B1B701C57
:10011A00A628F81FA628F00A0319F10A0319F20AF9
:10012A00031DA628F20CF10CF00CF30A0319AA28F5
:10013A00A6280130FC000F20AD280230FC00032065
:10014A00AD280430FC001620AD280830FC001A2027
:04015A000000080099
:0E015E008312031343088A004208820008003F
:10016C007B14FB1FC128F201FA1FFF30F200F100D3
:0A017C00F000FA0DF20CFF3008004D
:10018600710DF80DF90D7408F8027508031C750F4A
:10019600F902F00DF10D0F30FC00710DF80DF90D9F
:1001A6007408701CDC28F8027508031C750FF90228
:1001B600E128F80775080318750FF907F00DF10D1A
:1001C600FC0BD0287018ED287408F807750803187A
:0801D600750FF9070000080095
:1001DE008312031372087606A000F801F901730862
:1001EE007702031C12297708FD007308F7007D08BB
:1001FE00F3007608FD007208F6007D08F20075081F
:10020E00FD007108F5007D08F1007408FD0070080E
:10021E00F4007D08F000770803198B297208FA00A4
:10022E00F217F61777087302F700031945290830FD
:10023E007702031C3B29F7007408F9007508F400D7
:10024E007608F500F60108307702031C3B29F7000B
:10025E007408F9007508F400F50108307702031CE4
:10026E003B297A08F2008B297708031945290310D8
:10027E00F60CF50CF40CF90CF70B3E29A01F5229C5
:10028E00F909F409F509F609F90A0319F40A03192B
:10029E00F50A0319F60A7908F80774080318740F9B
:1002AE00F00775080318750FF10776080318760F17
:1002BE00F207A01B6B29031C7B29F20CF10CF00C2E
:1002CE00F80CF30F7B29872903187F29F809F00909
:1002DE00F109F209F80A0319F00A0319F10A0319D0
:1002EE00F20A8030FA0683290130FC0055208D2950
:1002FE000230FC0055208D290430FC0026208D296B
:10030E000830FC001A208D290030FC000000080087
:10031E0083120313FB01FA01F9018030F800F10C8E
:10032E00F00C031CA3297408F90775080318750F40
:10033E00FA070318FB0A0310F01FAB297408FA071B
:10034E0075080318750FFB07FB0CFA0CF90CF80C6B
:10035E00031C96297B08F3007A08F2007908F10055
:06036E007808F000080011
:10037400831203137008F8007108F000F101F20110
:10038400F301FB01FC019630F300FA01F01FD029C0
:10039400F809F009F80A0319F00AFA177008F100CD
:0C03A4007808F000F801F20126200800A3
:1003B000831203137408003A031DE7297508003AF5
:1003C000031DE729FF30F0007F30F100402A83123F
:1003D0000313FD01F901F8017108700403190034D9
:1003E00071087506FA00FA1BFD09FB01F51FFD29CE
:1003F000F409F509F40A0319F50AF11F042AF009B2
:10040000F109F00A0319F10A71087504FA00FA1BE0
:10041000192AC3207B182C2AFD1F0034F009F1098A
:10042000F00A0319F10AF809F909F80A0319F90A97
:100430000034F51F282AF11B242A7108F9007008DE
:10044000F800F101F0010C2AF101F001F00A00348A
:10045000F109F009FB0A092AF80A0319F90A7408D4
:100460007802031D0C2A75087902031D0C2AF90174
:10047000F801F00A0319F10AF11F0C2A0000FF34F9
:02048000080072
:10048200831203137008F100F0010830FC007108B8
:10049200F40C0318502AFC0B492AF1010034031012
:1004A200552AF40C0318F107F10CF00CFC0B522A3C
:0204B200080040
:0C04B400831203138030F606EF200800CE
:1004C000831603131208013EF000F1010318F10A2C
:1004D00083124C08F400F5018F210630F2007008F9
:1004E000F4007108F500720803197B2AF50CF40C6E
:1004F000F513FF3E742A0430F1007408F00071080F
:100500000319862AF00D7010FF3E802A30307005E6
:10051000F3007408F0007508F100F10CF00CF11311
:10052000F10CF00CF11370089B000F309D0573085F
:040530009D0408001E
:10053400831603131208013EF000F1010318F10AB7
:1005440083124C08F400F5018F210630F200700884
:10055400F4007108F50072080319B52AF50CF40CBF
:10056400F513FF3EAE2A0430F1007408F000710860
:100574000319C02AF00D7010FF3EBA2A30307005FE
:10058400F3007408F0007508F100F10CF00CF1139D
:10059400F10CF00CF113700895000F3097057308F7
:0405A40097040800B0
:0C05A800831203139B011D129D1208001A
:1005B400AF208A110A128000840AC20A0319C30AEE
:0805C400F003031DDA2A080010
:1005CC0083120313FB0173080319232B7208FA001F
:1005DC00F2178E30F302F31F262BF309F30A0830BF
:1005EC007302031C092BF300F10D7208F100F201E8
:1005FC0008307302031C092BF300F10DF101730891
:10060C00031D0310112B73080319112B0310F20C8B
:10061C00F10CF30B0C2B7B1B711C1B2B031C1B2BCE
:10062C00F10A0319F20AF21B322BFA1F352BF209CD
:10063C00F109F10A0319F20A352BF201F101352BFC
:10064C007B14FB1F382BF201FA1F382BFF30F20002
:10065C00F100FA0DF20C382B0130FC003A2B003073
:10066C00FC003A2BFF30FC00FC0803193E2BB62093
:0A067C007108F0007208F100080098
:1006860083120313FB017308031D770803199A2BC2
:1006960072087606FA007708F3077E30031C572B9C
:1006A600F30203189D2B5A2BF302031CA02B72088E
:1006B600F8007108FC007008FD00F817F617031023
:1006C600F201F101F0011830A0007D1C742B7408B2
:1006D600F00775080318750FF10776080318760FEB
:1006E600F207F20CF10CF00CF80CFC0CFD0C0310EC
:1006F600A00B682BF21B842BF80DF00DF10DF20DFB
:10070600F3037B1B701C962BF81F962BF00A03191C
:10071600F10A0319F20A031D962BF20CF10CF00CE8
:10072600F30A03199D2BFA1FF2130030A22B013096
:100736000F20A22B02301A20A22B04300320000027
:020746000800A9
:10074800831603138710831212150C309D040800BA
:10075800831603130711831212150C30970408002F
:0C0768008312031395011712971208006A
:1007740083120313881783168601FF3083128600C1
:100784000630FD00FD0BC42B0000FF3083168600ED
:10079400831286010230FC00D030FD00FD0BD02B0B
:0A07A400FC0BD02B000088130800A6
:1007AE0083120313A101A201A301A401A501A601B5
:1007BE00A701A801A901AA01AB01AC01AD01AE01CF
:1007CE00AF01B001B101B201B301B4017F30B50088
:1007DE00B601B701B801B9014B30BA005930BB00B0
:1007EE000630BC007A30BD00BE01BF01C001C101A0
:1007FE008316031789018801031387018801831269
:10080E00870112149210633083169200B423AC2326
:10081E0012149210633083169200D422A423BA23AA
:10082E00F101061AF10AF001861AF00A7008F107B2
:10083E00F2010318F20AF001061BF00A7008F10724
:10084E000318F20AF001861BF00A7008F10703186C
:10085E00F20A80307206F00080307002031D392CCF
:10086E0003307102031C952CF1018619F10AF00177
:10087E000619F00A7008F107F2010318F20AF001E6
:10088E008618F00A7008F1070318F20AF00106182C
:10089E00F00A7008F1070318F20A8030F000803079
:1008AE0072067002031D5D2C7108023C031C952C10
:1008BE000608183A0319942CBA23F001861AF00A86
:1008CE000530F40041227008C4007108C500F00123
:1008DE00061BF00A0530F40041227008C4077108A7
:1008EE000318013EC507F001861BF00A0530F4001F
:1008FE0041224408F00745080318013EF10770082D
:10090E00733CA1007108031C013EA201A202CC019E
:10091E009A222108CC0060225F2CC62EF101861986
:10092E00F10AF0010619F00A7008F107F201031836
:10093E00F20AF0018618F00A7008F1070318F20A9D
:10094E00F0010618F00A7008F1070318F20A803059
:10095E007206F00080307002031DB72C0330710256
:10096E00031C172DF101061AF10AF001861AF00A7E
:10097E007008F107F2010318F20AF001061BF00AE3
:10098E007008F1070318F20AF001861BF00A7008CE
:10099E00F1070318F20A8030F00080307206700200
:1009AE00031DDB2C7108023C031C172D0608183A98
:1009BE000319162DBA23F0010619F00A0530F400BA
:1009CE0041227008C4007108C500F0018618F00AB3
:1009DE000530F40041227008C40771080318013E67
:1009EE00C507F0010618F00A0530F400412244084C
:1009FE00F00745080318013EF1077008733CF0003C
:100A0E007108031C013EF101F1027008A300710888
:100A1E00A4007008CC009A22CC016022DD2CC62ED8
:100A2E000608003A0319C62EF001061BF00A003024
:100A3E00F100E830F4000330F5008F217008C40097
:100A4E007108C500F001861AF00A0030F100D030AE
:100A5E00F4000730F5008F217008C40771080318E1
:100A6E00013EC507F001061AF00A0030F100B83059
:100A7E00F4000B30F5008F217008C40771080318BD
:100A8E00013EC507F0018619F00A0030F100A030D2
:100A9E00F4000F30F5008F217008C4077108031899
:100AAE00013EC507F0010619F00A0030F10088304A
:100ABE00F4001330F5008F217008C4077108031875
:100ACE00013EC507F0018618F00A0030F1007030C3
:100ADE00F4001730F5008F217008C4077108031851
:100AEE00013EC507F0010618F00A0030F10058303B
:100AFE00F4001B30F5008F2170084407F6004508FE
:100B0E000318013E7107F700F101061AF10AF00110
:100B1E00861AF00A7008F107F2010318F20AF001C2
:100B2E00061BF00A7008F1070318F20AF001861B83
:100B3E00F00A7008F1070318F20AF0018619F00A9C
:100B4E007008F1070318F20AF0010619F00A70088E
:100B5E00F1070318F20AF0018618F00A7008F1077F
:100B6E000318F20AF0010618F00A70087107F40073
:100B7E0072080318013EF5007608F0007708F100C0
:100B8E00D821BA217008A5007108A6007208A70026
:100B9E007308A8007008F4007108F5007208F600DA
:100BAE007308F7000030F000C030F1005A30F20048
:100BBE008A30F3005A227008C8007108C900720802
:100BCE00CA007308CB004808A5004908A6004A08C9
:100BDE00A7004B08A8003A08F0003B08F1003C08BB
:100BEE00F2003D08F3004808F4004908F5004A08F1
:100BFE00F6004B08F70043237008C4007108C500C7
:100C0E007208C6007308C7004408B6004508B7004E
:100C1E004608B8004708B9002908F4002A08F5006C
:100C2E002B08F6002C08F7004808F0004908F100E0
:100C3E004A08F2004B08F3005A223208F400330837
:100C4E00F5003408F6003508F70043237008BE009F
:100C5E007108BF007208C0007308C1004808A900DF
:100C6E004908AA004A08AB004B08AC004408F4003F
:100C7E004508F5004608F6004708F700EF20700813
:100C8E00C8007108C9007208CA007308CB00480872
:100C9E00AD004908AE004A08AF004B08B000480846
:100CAE00F4004908F5004A08F6004B08F70000303A
:100CBE00F0000030F1006630F2008530F3005A2269
:100CCE00E6227008C4007108C5004408A300450858
:100CDE00A4000030F0000030F1006630F2008530E4
:100CEE00F3004808F4004908F5004A08F6004B08DE
:100CFE00F700EF20E6227008A1007108A2008030F4
:100D0E004506F00080307002031D8F2E0030440225
:100D1E000318932EA301A4018030F0008030240626
:100D2E007002031D9C2E2308733C0318A22E7330F1
:100D3E00A3000030A40080302206F0008030700244
:100D4E00031DAB2E003021020318AF2EA101A2010C
:100D5E008030F000803022067002031DB82E21086C
:100D6E00733C0318BE2E7330A1000030A20023087E
:100D7E00CC009A222108CC0060220608B100162C65
:020D8E00C72E6E
:04400E00F22F000786
:00000001FF
