:020000008C284A
:0E000600831203133E088A003D0882000800A2
:10001400831203133C08880009150630FC003030B5
:10002400FD00FD0B1328FC0B132800000911080028
:1000340083160317880100308312031389053030B7
:0C00440088000030831689058801080040
:0A0050000E3083120313BC000800F9
:10005A0003208A110A128000840ABD0A0319BE0A03
:08006A00F003031D2D2808001E
:10007200823083120313FC00DD30FD00FD0B3F28AC
:0A008200FC0B3F28000000000800FE
:0A008C00383083120313BC00080093
:0A009600063083120313BC000800BB
:1000A00083120313BF0109143F082C3E840000088B
:1000B000F10071080A3A031967283F082C3E8400B2
:1000C0000008F0007008BC000A20BF0A542809107C
:0200D000080026
:1000D20083120313BF0109143F08203E8400000865
:1000E200F10071080A3A031980283F08203E840073
:1000F2000008F0007008BC000A20BF0A6D28091031
:020102000800F3
:0A010400013083120313BC00080051
:0A010E00C03083120313BC00080088
:10011800323083120313A0003130A1003330A20023
:100128003530A3003230A4003630A5003330A600A5
:100138003430A7003630A8002030A9000A30AA00C1
:10014800AB014430AC006930AD006530AE006730BB
:10015800AF006F30B0002030B1004A30B2006930D3
:10016800B3006D30B4006530B5006E30B600653050
:10017800B7007A30B8002030B9000A30BA00BB01A5
:100188001A20392046200A2028200A2082200A2006
:100198004B200A20502087200A206920D228D32803
:04400E00F22F000786
:00000001FF
