:020000002A2CA8
:1000060083120313F801F9011030FC00710DF80D8D
:10001600F90D7408F8027508031C750FF902031828
:100026001B287408F80775080318750FF9070310DD
:0A003600F00DF10DFC0B0928080085
:1000400083120313C403C4034408003C03182D287F
:10005000C40300000000000024280000000000008D
:0600600000000000080092
:10006600403083120313F0001F30F100F201F30158
:02007600080080
:1000780083120313FB01FA01F901F801A001730DC2
:10008800F80D7408F8027508031C750FF902760854
:10009800031C760FFA027708031C770FFB02000196
:1000A800031C0130A002F30D0730FC00730DF80D9E
:1000B800F90DFA0DFB0DA00D7408731C7528F802D4
:1000C8007508031C750FF9027608031C760FFA02EF
:1000D8007708031C770FFB020001031C0130A00204
:1000E8008628F80775080318750FF90776080318A6
:1000F800760FFA0777080318770FFB070001031834
:100108000130A007F30DFC0B5A28720DF80DF90DFC
:10011800FA0DFB0DA00D7408731CA428F8027508CD
:10012800031C750FF9027608031C760FFA0277088C
:10013800031C770FFB020001031C0130A002B52845
:10014800F80775080318750FF90776080318760F6E
:10015800FA0777080318770FFB0700010318013027
:10016800A007F20D0730FC00720DF80DF90DFA0D1D
:10017800FB0DA00D7408721CD328F8027508031C27
:10018800750FF9027608031C760FFA027708031C2C
:10019800770FFB020001031C0130A002E428F807D6
:1001A80075080318750FF90776080318760FFA070C
:1001B80077080318770FFB07000103180130A00721
:1001C800F20DFC0BB828710DF80DF90DFA0DFB0DA9
:1001D800A00D7408721C0229F8027508031C750F1B
:1001E800F9027608031C760FFA027708031C770FCA
:1001F800FB020001031C0130A0021329F80775084F
:100208000318750FF90776080318760FFA077708A9
:100218000318770FFB07000103180130A007F10D41
:100228000730FC00710DF80DF90DFA0DFB0DA00D4E
:100238007408711C3129F8027508031C750FF9023E
:100248007608031C760FFA027708031C770FFB0267
:100258000001031C0130A0024229F80775080318A1
:10026800750FF90776080318760FFA077708031849
:10027800770FFB07000103180130A007F10DFC0BF5
:100288001629700DF80DF90DFA0DFB0DA00D740867
:10029800711C6029F8027508031C750FF9027608AD
:1002A800031C760FFA027708031C770FFB02000184
:1002B800031C0130A0027129F80775080318750F8F
:1002C800F90776080318760FFA0777080318770FE7
:1002D800FB07000103180130A007F00D0730FC00F0
:1002E800700DF80DF90DFA0DFB0DA00D7408701CBA
:1002F8008F29F8027508031C750FF9027608031C8C
:10030800760FFA027708031C770FFB020001031C23
:100318000130A002A029F80775080318750FF9071E
:1003280076080318760FFA0777080318770FFB0784
:10033800000103180130A007F00DFC0B7429701898
:10034800B3297408F80775080318750FF9077608B4
:100358000318760FFA0777080318770FFB070800CA
:10036800831203132230FC00F801F901FA01FB01A2
:10037800FC030319EA290310FB0CFA0CF90CF80C1E
:10038800F30CF20CF10CF00C031CBC29FC03031950
:10039800DC297408F80775080318750FF90776083B
:1003A8000318760FFA0777080318770FFB07C02999
:1003B8007408F80775080318750FF9077608031805
:0E03C800760FFA0777080318770FFB07080077
:1003D60083120313861B1C2A2A08F0002B08F1003F
:1003E600F00DF10D70107008223E84000008F10037
:1003F600840A0008F20000307206031D042A013048
:100406007106031D0A2AAA0A0319AB0A0C2AAA01B5
:10041600AB0187150230FB004530FC00A930FD001A
:10042600FD0B132AFC0B132AFB0B132A00000000FA
:10043600792A061B4B2A2A08F0002B08F100F00D3A
:10044600F10D70107008223E84000008F100840A45
:100456000008F20000307206031D332A02307106CE
:10046600031D392AAA0A0319AB0A3B2AAA01AB01C2
:1004760087150230FB004530FC00A930FD00FD0B5E
:10048600422AFC0B422AFB0B422A00000000792A72
:10049600861A792A2A08F0002B08F100F00DF10DD2
:1004A60070107008223E84000008F100840A0008DB
:1004B600F20000307206031D622A03307106031D26
:1004C600682AAA0A0319AB0A6A2AAA01AB01871588
:1004D6000230FB004530FC00A930FD00FD0B712AFF
:1004E600FC0B712AFB0B712A0000000000302B0662
:1004F600031D7F2A04302A06031D982AAA01AB0190
:1005060087010B30FB002630FC005D30FD00FD0B43
:100516008A2AFC0B8A2AFB0B8A2A00000000061B8B
:0E052600972A861A972A982A922A8711080087
:100534000E3083120313FD00FD0B9E2A00000800F9
:100544003320E830F4000330F500F601F701B4215C
:100554007008C0007108C1007208C2007308C300AB
:100564003808F4003908F500F601F7013C2070085A
:10057400C0007108C1007208C2007308C30070088B
:10058400F5007108F6007208F7007308F800F80C1B
:10059400F70CF60CF50CF813F80CF70CF60CF50C3C
:1005A400F8137508F0007608F1007708F20078086F
:1005B400F300F30CF20CF10CF00CF3137008BC0014
:1005C4007108BD0033203A08F4003B08F500F60139
:1005D400F701B4213C08F9003D08FA00FB01FC01D5
:1005E4000330F8007908F4007A08F5007B08F60077
:1005F4007C08F70078080319062BF40DF50DF60DA9
:10060400F70D7410FF3EFD2A3C207008C0007108ED
:10061400C1007208C2007308C3000A30F40000303D
:10062400F5003C08F0003D08F10003207008BC0010
:100634007108BD0000307102031D222B03307002CB
:100644000318252B722B300884004308003C031D3B
:10065400352B4208003C031D352B4108003C031D8B
:10066400352B4008003C0318702B310880043D08EA
:1006740003194C2BBE01BF0100303F02031D442B64
:100684003D083E0203184C2BC4012020BE0A031966
:10069400BF0A3E2B3C08C4002020320880053D08D8
:1006A4000319642BBE01BF0100303F02031D5C2B04
:1006B4003D083E020318642BC4012020BE0A03191E
:1006C400BF0A562B3C08C40020200130C002031C82
:1006D400C102031CC202031CC302272B320880057B
:0206E40008000C
:1006E600843083120313B8000330B9003230BA00E5
:1006F6000030BB00A222EB218230FC00DD30FD0081
:10070600FD0B832BFC0B832B00000000EB21080064
:10071600843083120313B8000330B9003230BA00B4
:100726000030BB00A222EB21F430B8000130B90042
:0E0736003230BA000030BB00A222EB210800D6
:10074400C330831203139F05C0309F003708F000A5
:10075400F00D7010F00D701070089F042109F00066
:10076400700883169F059F1783121F149A229F14E3
:100774009F1CBE2B0000BA2B1F101E08F100F001B5
:0C07840083161E08F0040030F104080089
:0E079000831203132D088A002C088200080033
:10079E00831203133508B0003608F1000130F00063
:1007AE0071080319DE2BF00D7010FF3ED82B700868
:1007BE00B100F0097008B20080303507840070086F
:0A07CE008005841370088005080000
:1007D80083120313B701A22370088312AE007108B5
:1007E800AF000130B700A22370088312B30071086C
:1007F800B40003307102031D032C20307002031C67
:100808000D2C0715871607128B23871207168B23C3
:100818001D2C03302F02031D132C20302E02031C25
:100828001C2C0715871607127323871273231D2C98
:04083800870108002C
:10083C00C8238A110A128000840AAC0A0319AD0A73
:08084C00F003031D1E2C08003F
:1008540056240330831603178800FF3003138500E2
:100864007F30810503178901FF308312031386004B
:1008740083168701831287010730B5000230B60062
:08088400CF23EC23432C452C8B
:1008AC00213084000B3083120313F0004B30AC006A
:0808BC000430AD001E24080009
:020896003034FC
:1008980001340034013400340334003402340034A9
:0408A80000340034E4
:04400E00F22F000786
:00000001FF
