:02000000B72B1C
:10000600403083120313F0001F30F100F201F301B8
:020016000800E0
:1000180083120313C603C6034608003C03181928B5
:10002800C6030000000000001028000000000000C7
:06003800000000000800BA
:10003E0083120313F801F9011030FC00710DF80D55
:10004E00F90D7408F8027508031C750FF9020318F0
:10005E0037287408F80775080318750FF907031089
:0A006E00F00DF10DFC0B2528080031
:10007800831203132230FC00F801F901FA01FB0195
:10008800FC03031972280310FB0CFA0CF90CF80C8A
:10009800F30CF20CF10CF00C031C4428FC030319BC
:1000A80064287408F80775080318750FF9077608A7
:1000B8000318760FFA0777080318770FFB07482805
:1000C8007408F80775080318750FF90776080318F8
:0E00D800760FFA0777080318770FFB0708006A
:1000E60083120313FB01FA01F901F801A001730D54
:1000F600F80D7408F8027508031C750FF9027608E6
:10010600031C760FFA027708031C770FFB02000127
:10011600031C0130A002F30D0730FC00730DF80D2F
:10012600F90DFA0DFB0DA00D7408731CAC28F8022E
:100136007508031C750FF9027608031C760FFA0280
:100146007708031C770FFB020001031C0130A00295
:10015600BD28F80775080318750FF9077608031800
:10016600760FFA0777080318770FFB0700010318C5
:100176000130A007F30DFC0B9128720DF80DF90D57
:10018600FA0DFB0DA00D7408731CDB28F802750828
:10019600031C750FF9027608031C760FFA0277081E
:1001A600031C770FFB020001031C0130A002EC28A0
:1001B600F80775080318750FF90776080318760F00
:1001C600FA0777080318770FFB07000103180130B9
:1001D600A007F20D0730FC00720DF80DF90DFA0DAF
:1001E600FB0DA00D7408721C0A29F8027508031C81
:1001F600750FF9027608031C760FFA027708031CBE
:10020600770FFB020001031C0130A0021B29F8072F
:1002160075080318750FF90776080318760FFA079D
:1002260077080318770FFB07000103180130A007B2
:10023600F20DFC0BEF28710DF80DF90DFA0DFB0D03
:10024600A00D7408721C3929F8027508031C750F75
:10025600F9027608031C760FFA027708031C770F5B
:10026600FB020001031C0130A0024A29F8077508A9
:100276000318750FF90776080318760FFA0777083B
:100286000318770FFB07000103180130A007F10DD3
:100296000730FC00710DF80DF90DFA0DFB0DA00DE0
:1002A6007408711C6829F8027508031C750FF90299
:1002B6007608031C760FFA027708031C770FFB02F9
:1002C6000001031C0130A0027929F80775080318FC
:1002D600750FF90776080318760FFA0777080318DB
:1002E600770FFB07000103180130A007F10DFC0B87
:1002F6004D29700DF80DF90DFA0DFB0DA00D7408C2
:10030600711C9729F8027508031C750FF902760807
:10031600031C760FFA027708031C770FFB02000115
:10032600031C0130A002A829F80775080318750FE9
:10033600F90776080318760FFA0777080318770F78
:10034600FB07000103180130A007F00D0730FC0081
:10035600700DF80DF90DFA0DFB0DA00D7408701C4B
:10036600C629F8027508031C750FF9027608031CE6
:10037600760FFA027708031C770FFB020001031CB5
:100386000130A002D729F80775080318750FF90779
:1003960076080318760FFA0777080318770FFB0716
:1003A600000103180130A007F00DFC0BAB297018F3
:1003B600EA297408F80775080318750FF90776080F
:1003C6000318760FFA0777080318770FFB0708005C
:0E03D6008312031336088A00350882000800DF
:1003E4008312031308108810081188113A0803199E
:1003F400422A2B08213E8400000887008814033019
:10040400FC009730FD00FD0B052AFC0B052A0000BB
:10041400000088103108213E840000088700081479
:100424000330FC009730FD00FD0B162AFC0B162A46
:100434000000000008102F08213E840000088700F7
:10044400071008150330FC009730FD00FD0B282A27
:10045400FC0B282A0000000008112D08213E84000E
:100464000008870088150330FC009730FD00FD0B61
:10047400392AFC0B392A000000008811BA03F82934
:0204840008006E
:100486000320E830F4000330F500F601F7013C20C4
:100496007008C2007108C3007208C4007308C50062
:1004A6003A08F4003B08F500F601F70173207008DE
:1004B600C2007108C3007208C4007308C500700842
:1004C600F5007108F6007208F7007308F800F80CDA
:1004D600F70CF60CF50CF813F80CF70CF60CF50CFB
:1004E600F8137508F0007608F1007708F20078082E
:1004F600F300F30CF20CF10CF00CF3137008BE00D1
:100506007108BF0003203C08F4003D08F500F60121
:10051600F7013C203E08F9003F08FA00FB01FC0108
:100526000330F8007908F4007A08F5007B08F60035
:100536007C08F70078080319A72AF40DF50DF60DC7
:10054600F70D7410FF3E9E2A73207008C2007108D2
:10055600C3007208C4007308C5000A30F4000030F6
:10056600F5003E08F0003F08F1001F207008BE00AD
:100576007108BF0000307102031DC32A03307002E8
:100586000318C62A132B370884004508003C031DB0
:10059600D62A4408003C031DD62A4308003C031D06
:1005A600D62A4208003C0318112B330880043F0862
:1005B6000319ED2AC001C10100304102031DE52ADD
:1005C6003F0840020318ED2AC6010C20C00A031991
:1005D600C10ADF2A3E08C6000C20340880053F0801
:1005E6000319052BC001C10100304102031DFD2A7C
:1005F6003F0840020318052BC6010C20C00A031948
:10060600C10AF72A3E08C6000C200130C202031CAC
:10061600C302031CC402031CC502C82A3408800591
:020626000800CA
:10062800831203133A08B7003B08F1000130F000C9
:1006380071080319232BF00D7010FF3E1D2B700855
:10064800B300F0097008B40080303A0784007008DD
:0A0658008005841370088005080077
:1006620083120313861C6A2BAB0A0319AC0A0030EF
:100672002C06031D3E2B0A302B06031D692BAB01F2
:10068200AC01B10A0319B20A00303206031D4B2B2A
:1006920006303106031D692BB101B201AF0A0319FD
:1006A200B00A00303006031D582B0A302F06031DF6
:1006B200692BAF01B001AD0A0319AE0A00302E0654
:1006C200031D652B06302D06031D692BAD01AE01FE
:1006D200AA2B0130AB02031CAC03FF302C06031D16
:1006E200742BFF302B06031DAA2B0930AB00003000
:1006F200AC000130B102031CB203FF303206031D0D
:10070200842BFF303106031DAA2B0530B1000030C7
:10071200B2000130AF02031CB003FF303006031DEC
:10072200942BFF302F06031DAA2B0930AF00003097
:10073200B0000130AD02031CAE03FF302E06031DD4
:10074200A42BFF302D06031DAA2B0530AD0000306F
:04075200AE000800ED
:10075600EB218A110A128000840AB50A0319B60A27
:08076600F003031DAB2B08009A
:10076E00093083120313A100AF30A2003130A30071
:10077E002330A4008730A5004330A6004130A700E7
:10078E002F30A8000130A9000730AA000130AB00BD
:10079E00AC01AD01AE01AF01B001B101B2018316E2
:1007AE0085018701F03088007F30810503178901AC
:1007BE008801831203138501FF3086000F308800F5
:1007CE000530BA00BB0114230618F02BFF3087004A
:1007DE00EB2B31082B07F0002C080318013E3207D3
:1007EE00F1002F08F00730080318013EF1072D081D
:1007FE007007F20071080318013E2E07F300003057
:10080E007306031D0C2C00307206031D332CB80129
:10081E00B90180303906F00080307002031D192CAA
:10082E00323038020318332C8430BA000330BB0048
:10083E003230BC000030BD0043220130BA00F2213C
:10084E004E30FC00EB30FD00FD0B2B2CFC0B2B2C4B
:10085E00B80A0319B90A102C7D30BA00F221061D10
:10086E003A2C3123792C061A4A2CAB0A0319AC0AFE
:10087E0000302C06031D452C0A302B06031D492C77
:10088E00AB01AC01792C861A5A2CB10A0319B20AA3
:10089E0000303206031D552C06303106031D592C2F
:1008AE00B101B201792C061B6A2CAF0A0319B00AEA
:1008BE0000303006031D652C0A302F06031D692CEF
:1008CE00AF01B001792C861B792CAD0A0319AE0A43
:1008DE0000302E06031D752C06302D06031D792CB7
:0808EE00AD01AE01EB2B7A2CE9
:04400E00F22F000786
:00000001FF
