:020000001628C0
:0E000600831203132B088A002A0882000800C8
:1000140003208A110A128000840AAA0A0319AB0A6F
:08002400F003031D0A28080087
:10002C00773083120313A0001430A100B330A20068
:10003C00B630A300D430A400E630A500E730A6000B
:10004C003430A700F730A800F430A90083168701DC
:10005C007F30810503178901FF308312031386005B
:10006C00AC012C080A3A03195528861B42282C0887
:10007C00003C03184228AC032C08203E84000008E6
:10008C0087000330FB000830FC007730FD00FD0BCF
:10009C004D28FC0B4D28FB0B4D28AC0A3728362875
:0200AC005628D4
:04400E00F22F000786
:00000001FF
