:02000000F62BDD
:10000600831603135F08BF006008C000C101C20168
:060016000130BE000800ED
:10001C00831203132230FC00F801F901FA01FB01F1
:10002C00FC03031944280310FB0CFA0CF90CF80C14
:10003C00F30CF20CF10CF00C031C1628FC03031946
:10004C0036287408F80775080318750FF907760831
:10005C000318760FFA0777080318770FFB071A288F
:10006C007408F80775080318750FF9077608031854
:0E007C00760FFA0777080318770FFB070800C6
:10008A00710DF80DF90D7408F8027508031C750F47
:10009A00F902F00DF10D0F30FC00710DF80DF90D9C
:1000AA007408701C5E28F8027508031C750FF902A3
:1000BA006328F80775080318750FF907F00DF10D95
:1000CA00FC0B522870186F287408F8077508031873
:0800DA00750FF9070000080092
:0E00E200831603134E088A004D0882000800A2
:1000F000831603133E08031D82280130DF00003001
:10010000E00003203F08F0004008F1004108F20041
:100110004208F3006D30F4004E30F500C630F600B2
:100120004130F7000E203930F5003030F600F7018D
:10013000F8017008F50771080318710FF6077208C7
:100140000318720FF70773080318730FF80777087F
:10015000F0007808F1000030F81BFF30F200F300E7
:10016000FF30F0057F30F1050030F205F30570082F
:100170008316BF007108C0007208C1007308C20076
:02018000080075
:10018200053083160313DD000030DE005530831284
:1001920086008030F000803083165E067002031DF8
:1001A200D4285D08003C03181629F201F3018030BF
:1001B2007306F00080307002031DE1281E307202C7
:1001C20003180D29F401F50180307506F000803026
:1001D2007002031DEE2808307402031809297408FE
:1001E200F1008030F00071080319FB28F00CF013C5
:1001F200FF3EF528700883128500FF3086064230E4
:10020200FD00FD0B02290000F40A0319F50AE52896
:10021200F20A0319F30AD8288312FF308606013046
:0C0222008316DD02031CDE03CA2808005E
:10022E00831203137408003A031D26297508003A39
:10023E00031D2629FF30F0007F30F1007F29831245
:10024E000313FD01F901F80171087004031900345C
:10025E0071087506FA00FA1BFD09FB01F51F3C2912
:10026E00F409F509F40A0319F50AF11F4329F009F7
:10027E00F109F00A0319F10A71087504FA00FA1B64
:10028E00582945207B186B29FD1F0034F009F10910
:10029E00F00A0319F10AF809F909F80A0319F90A1B
:1002AE000034F51F6729F11B63297108F9007008E6
:1002BE00F800F101F0014B29F101F001F00A0034D0
:1002CE00F109F009FB0A4829F80A0319F90A74081A
:1002DE007802031D4B2975087902031D4B29F9017C
:1002EE00F801F00A0319F10AF11F4B290000FF343F
:0202FE000800F6
:100300000A3083160313DB000030DC00FF30831259
:1003100086008030F000803083165C067002031D7A
:1003200093295B08003C0318692BD701D801803062
:100330005806F00080307002031DA0291E305702BD
:100340000318642BD901DA0180305A06F00080309E
:100350007002031DAD29083059020318602B59089B
:10036000F1008030F00071080319BA29F00CF01385
:10037000FF3EB429700883128500003083165606AC
:10038000031DC42900305506031DEA295908F00051
:100390005A08F100F00DF10D70107008403E840015
:1003A0000008F300840A0008F4000530F200730826
:1003B000F0007408F10072080319E529F10CF00C43
:1003C000F113711BF117FF3EDC29F8307004831222
:1003D0008600CA2A003083165606031DF129013013
:1003E0005506031D172A5908F0005A08F100F00DB0
:1003F000F10D70107008303E84000008F300840A8C
:100400000008F4000530F2007308F0007408F100F1
:1004100072080319122AF10CF00CF113711BF11779
:10042000FF3E092AF830700483128600CA2A003081
:1004300083165606031D1E2A02305506031D442A44
:100440005908F0005A08F100F00DF10D7010700815
:10045000503E84000008F300840A0008F4000530D0
:10046000F2007308F0007408F100720803193F2AC3
:10047000F10CF00CF113711BF117FF3E362AF83026
:10048000700483128600CA2A003083165606031DA4
:100490004B2A03305506031D712A5908F0005A08EB
:1004A000F100F00DF10D70107008A03E84000008FE
:1004B000F300840A0008F4000530F2007308F0002D
:1004C0007408F100720803196C2AF10CF00CF11396
:1004D000711BF117FF3E632AF83070048312860007
:1004E000CA2A003083165606031D782A04305506A2
:1004F000031D9E2A5908F0005A08F100F00DF10D75
:1005000070107008603E84000008F300840A000840
:10051000F4000530F2007308F0007408F10072086E
:100520000319992AF10CF00CF113711BF117FF3E1E
:10053000902AF830700483128600CA2A003083168D
:100540005606031DA52A05305506031DCA2A59085B
:10055000F0005A08F100F00DF10D70107008203E07
:1005600084000008F300840A0008F4000530F2005B
:100570007308F0007408F10072080319C62AF10C20
:10058000F00CF113711BF117FF3EBD2AF830700417
:1005900083128600003083165406031DD12A0030D2
:1005A0005306031DE12A5908F0005A08F100F00D26
:1005B000F10D70107008403E84000008831286051B
:1005C000532B003083165406031DE82A01305306CE
:1005D000031DF82A5908F0005A08F100F00DF10D3A
:1005E00070107008303E8400000883128605532B7B
:1005F000003083165406031DFF2A02305306031DE4
:100600000F2B5908F0005A08F100F00DF10D701091
:100610007008503E8400000883128605532B00307A
:1006200083165406031D162B03305306031D262B79
:100630005908F0005A08F100F00DF10D7010700823
:10064000A03E8400000883128605532B00308316D9
:100650005406031D2D2B04305306031D3D2B590852
:10066000F0005A08F100F00DF10D70107008603EB6
:100670008400000883128605532B0030831654062D
:10068000031D442B05305306031D532B5908F0005E
:100690005A08F100F00DF10D70107008203E840032
:1006A0000008831286054230FD008312FD0B552B96
:1006B0000000FF3086008316D90A0319DA0AA4293C
:1006C000D70A0319D80A97290130DB02031CDC037F
:0606D0008929C120080089
:1006D6008316031788018901031385018601FF30FC
:1006E600870083128501FF30860087010330831659
:1006F600B2000030B3000330B6000030B700B401DA
:10070600B501B801B90178200230F4000030F500D7
:1007160017217808F0007908F10003307007831676
:10072600C50071080318013EC60078200230F400A7
:100736000030F50017217808F0007908F100033041
:1007460070078316C30071080318013EC400013008
:10075600C7000030C8000130CB000030CC000230AA
:10076600C9000030CA000230BC000030BD000130B4
:08077600BA000030BB000800CE
:10077E0083120313FB01FA01F9018030F800F10C2A
:10078E00F00C031CD32B7408F90775080318750FAA
:10079E00FA070318FB0A0310F01FDB2B7408FA0785
:1007AE0075080318750FFB07FB0CFA0CF90CF80C07
:1007BE00031CC62B7B08F3007A08F2007908F100BF
:0607CE007808F0000800AD
:1007D40071208A110A128000840ACD0A0319CE0AF4
:0807E400F003031DEA2B0800DD
:1007EC007C276B23CF01D00180305006F000803085
:1007FC007002031D032C1E304F020318A42CD101D0
:10080C00D20180305206F00080307002031D102C93
:10081C00083051020318A02C5108F1008030F00070
:10082C00710803191D2CF00CF013FF3E172C7008E7
:10083C0083128500831652084606031D272C450893
:10084C005106031D392C4308F1000130F0007108EA
:10085C000319342CF00D7010FF3E2E2CFF30F006D7
:10086C00700883128605013083163202F1000030C5
:10087C00031C013E3302F20052087206031D482C81
:10088C00710851060319632C52083306031D502CB2
:10089C00320851060319632C3208013EF100003076
:1008AC000318013E3307F20052087206031D602C38
:1008BC00710851060319632C662C7F308312860550
:1008CC00013083163602F1000030031C013E370262
:1008DC00F20052087206031D752C7108510603199B
:1008EC00902C52083706031D7D2C3608510603192F
:1008FC00902C3608013EF10000300318013E3707FA
:10090C00F20052087206031D8D2C71085106031952
:10091C00902C932CFE30831286054230FD008312FE
:10092C00FD0B952C0000FF3086008316D10A0319AD
:10093C00D20A072CCF0A0319D00AFA2B8312871D6F
:10094C00B02C071DB02C071CB02C871CB02C8316A8
:10095C00B001B10183166430F4000030F5003A08A0
:10096C00F0003B08F10017217808F0007908F1003D
:10097C0000307106031DC42C00307006031DD62CEC
:10098C008030F000803083164A067002031DD02C94
:10099C004908003C0318D62C0130C902031CCA03B9
:1009AC008312871DE92C803083163306F0008030CB
:1009BC007002031DE32C063032020318E92CB20A34
:1009CC000319B30AFD2C8312071DFD2C8030F00097
:1009DC008030831633067002031DF62C3208013C5E
:1009EC000318FD2CFF30B2070318B30AB3038312AC
:1009FC00871C102D803083163706F0008030700273
:100A0C00031D0A2D063036020318102DB60A0319E1
:100A1C00B70A242D8312071C242D8030F00080305F
:100A2C00831637067002031D1D2D3608013C031872
:100A3C00242DFF30B6070318B70AB703831600300E
:100A4C003106031D2B2D00303006031D7C2E00308B
:100A5C003D06031D332D00303C06031D752E003062
:100A6C004406031D3B2D06304306031DB42D0030F8
:100A7C004C06031D432D01304B06031DB42D0130D4
:100A8C003202F1000030031C013E3302F200460832
:100A9C007206031D532D710845060319B02D460827
:100AAC003306031D5B2D320845060319B02D3208A1
:100ABC00013EF10000300318013E3307F2004608F6
:100ACC007206031D6B2D710845060319B02D4508E0
:100ADC00013EF30000300318013E4607F4000130DC
:100AEC003202F1000030031C013E3302F2007408A4
:100AFC007206031D832D71087306031D8E2D0030A5
:100B0C004806031D8B2D01304706031D8E2DB02D7D
:100B1C0001304502F3000030031C013E4602F40094
:100B2C003208013EF10000300318013E3307F20099
:100B3C0074087206031DA42D71087306031DAF2DD6
:100B4C00FF304806031DAC2DFF304706031DAF2DAB
:100B5C00B02DB42DFF30CB00FF30CC00003044065C
:100B6C00031DBA2D01304306031D332EFF304C06F6
:100B7C00031DC22DFF304B06031D332E01303602F0
:100B8C00F1000030031C013E3702F20046087206E9
:100B9C00031DD22D7108450603192F2E4608370662
:100BAC00031DDA2D3608450603192F2E3608013E93
:100BBC00F10000300318013E3707F20046087206B8
:100BCC00031DEA2D7108450603192F2E4508013E19
:100BDC00F30000300318013E4607F40001303602E2
:100BEC00F1000030031C013E3702F200740872065B
:100BFC00031D022E71087306031D0D2E00304806CE
:100C0C00031D0A2E01304706031D0D2E2F2E013019
:100C1C004502F3000030031C013E4602F400360886
:100C2C00013EF10000300318013E3707F200740852
:100C3C007206031D232E71087306031D2E2EFF3022
:100C4C004806031D2B2EFF304706031D2E2E2F2E7C
:100C5C00332E0130CB000030CC0000304606031D93
:100C6C00392E00304506031D442EFF304806031D67
:100C7C00412EFF304706031D442E562E00304606EB
:100C8C00031D4A2E07304506031D552E003048061D
:100C9C00031D522E01304706031D552E562E642E71
:100CAC004708F0004808F100FF30F400FF30F50071
:100CBC00BF2370088316C7007108C8004708C50712
:100CCC0048080318013EC6074B08C3074C08031815
:100CDC00013EC4074908BC004A08BD00792E01300A
:100CEC00BC02031CBD03BA0A0319BB0A80304406BC
:100CFC00F00080307002031D852E00304302031C6F
:100D0C00932E8030F000803044067002031D902E2C
:100D1C004308073C031C932EF82E80304406F00049
:100D2C0080307002031D9C2E003043020318A22E4B
:100D3C00B40A0319B50AA52EB80A0319B90A033067
:100D4C00B2000030B3000330B6000030B70078209A
:100D5C000230F4000030F50017217808F000790813
:100D6C00F100033070078316C50071080318013EAB
:100D7C00C60078200230F4000030F5001721780806
:100D8C00F0007908F100033070078316C300710876
:100D9C000318013EC4004B08F0004C08F100FF3072
:100DAC00F400FF30F500BF2370088316CB007108E8
:100DBC00CC000230C9000030CA000230BC00003048
:100DCC00BD000130BA000030BB00C1203408D30094
:100DDC003508D4003808D5003908D6008021FF30FA
:100DEC0083128600003083163506031DFF2E053056
:100DFC00340603190A2F00303906031D072F05305E
:100E0C00380603190A2F122FB401B501B801B90124
:0C0E1C000130B0000030B100F82B132FA3
:100EF80020308400503083120313F0001930831619
:100F0800CD000730CE00EA23A0308400123003134E
:100F1800F00069308316CD000730CE00EA230800C0
:100E3200FF340034FF3400341F340034DF34003414
:100E42001F3400347F3400341F340034FF34003444
:100E5200FF340034FF340034BF340034BF34003474
:100E6200BF340034BF340034BF340034FF340034A4
:100E7200FF340034FF3400341F3400345F34003454
:100E82005F3400345F3400341F340034FF340034E4
:100E9200FF340034FF3400341F3400347F34003414
:100EA2001F340034DF3400341F340034FF34003484
:100EB200FF340034FF340034DF340034DF340034D4
:100EC2001F3400345F3400345F340034FF340034A4
:100ED200FF340034FF3400341F340034DF34003474
:100EE2001F340034DF3400341F340034FF34003444
:040EF2000134003493
:04400E00F42F000784
:00000001FF
