:02000000382D99
:0400060000000800EE
:10000A00103083120313FD00FD0B092800000800BD
:10001A00083083120313FC002330FD00FD0B132864
:06002A00FC0B1328080086
:1000300083160313A21B1F288312881321288312FF
:1000400088178316221B2728831208132928831256
:1000500008178316A21A2F288312881231288312B8
:1000600088168316221A3728831208123928831219
:10007000081663183D2809143E28091009150320A5
:1000800009118316A219472883128813492883125D
:100090008817831622194F288312081351288312B8
:1000A00008178316A218572883128812592883121A
:1000B0008816831622185F2883120812612883127B
:1000C0000816631865280914662809100915032005
:0E00D0000911631C6D280D206E280520080004
:0E00DE00F201F101F001F801F3010030080019
:1000EC0083120313F801F9011030FC00710DF80DA7
:1000FC00F90D7408F8027508031C750FF902031842
:10010C008E287408F80775080318750FF907031083
:0A011C00F00DF10DFC0B7C2808002B
:08012600FA1FF213003008007B
:10012E00FB14FB1FA128FF30F300F200F100F000DA
:08013E00FA0DF20CFF3008007D
:100146007B15FB1FAD280130F300F201F101F00130
:08015600FA0DF20CFF30080065
:10015E00A0017208031DC4287108F2007008F10096
:10016E00F001A0157208031DC4287108F200F101F8
:10017E00A011201672080319D2282008F302031DBD
:10018E00031CD6280310F21BDA28F00DF10DF20D28
:10019E00F30BCA28D6280130FC006F20DD28023070
:0E01AE00FC00A320DD280430FC009320080094
:0E01BC00073083120313FD00FD0BE22808003C
:1001CA0083160313A001053020020318F52820081E
:1001DA0083126F078400203080008316A00AE82863
:1001EA00200883126F07840080018316A003200869
:1001FA0083126F078316A1000A30F400F5018312F7
:10020A006D08F0006E08F10076207808F000790891
:10021A00F1003030F007831621088400700880004E
:10022A000A30F400F50183126D08F0006E08F1003F
:10023A0076207008ED007108EE0000307106031D8B
:10024A00282900307006031D2B292E298316A003A6
:04025A00FC28080074
:10025E008312031363106D088316A2001820631413
:02026E00080086
:100270007B14FB1F4329F201FA1FFF30F200F1004B
:0A028000F000FA0DF20CFF30080048
:06028A00FB15FF30080027
:100290007C187E29FC184F297C199D294829A0012A
:1002A0007208031D6F297108F2007008F1007808C8
:1002B000F000F801A0157208031D6F297108F20003
:1002C0007008F100F001A01120167208031D6F29BB
:1002D0007108F200F101A015720803199129200894
:1002E000F302031D031C95290310F21B7E29F80D50
:1002F000F00DF10DF20DF30B752995297B1B701C88
:100300009929F81F9929F00A0319F10A0319F20A29
:10031000031D9929F20CF10CF00CF30A03199D2925
:1003200099290130FC006F20A0290230FC00A32095
:10033000A0290430FC009320A0290830FC0097205D
:0403400000000800B1
:0E034400831203135A088A0059088200080029
:1003520083120313FB0173080319E6297208FA00DA
:10036200F2178E30F302F31FE929F309F30A08307A
:100372007302031CCC29F300F10D7208F100F201A3
:1003820008307302031CCC29F300F10DF10173084C
:10039200031D0310D42973080319D4290310F20C86
:1003A200F10CF30BCF297B1B711CDE29031CDE2908
:1003B200F10A0319F20AF21BF529FA1FF829F209C8
:1003C200F109F10A0319F20AF829F201F101F829F7
:1003D2007B14FB1FFB29F201FA1FFB29FF30F200FD
:1003E200F100FA0DF20CFB290130FC00FD2900306E
:1003F200FC00FD29FF30FC00FC080319012A38210A
:0A0402007108F0007208F100080014
:10040C00831203137408003A031D212A7508003A5D
:10041C00031D212A7608003A031D212A7708003A89
:10042C00031D212AFF30F000FF30F1007F30F20075
:10043C00FF30F300BC2A8312031377080319B02A88
:10044C0073080319B32A720876068039FA00F2177A
:10045C00F617A0017208F8007108FC007008FD0086
:10046C007408FD027508031C750FFC027608031C4A
:10047C00760FF802F801FC01FD01031C4C2A031055
:10048C00F20CF10CF00CF80C0130A0007708F30220
:10049C00031C562A7E302007F3070318B62A5B2A62
:1004AC007E302007F307031CB92A1830FA07FD0D1C
:1004BC00FC0DF80DF00DF10DF20DA00D7408F0020D
:1004CC007508031C750FF1027608031C760FF202F7
:1004DC00760DA004201C742A7D147F2A7408F00762
:1004EC0075080318750FF10776080318760AF207DA
:1004FC007D10FA031F307A05031D5D2A7B1B7D1CC2
:10050C00A62A0310F00DF10DF20DA00D7408F002E7
:10051C007508031C750FF1027608031C760FF202A6
:10052C00760D20040139FD070318FC0A0319F80A9B
:10053C00031DA62AF80CFC0CFD0CF30A0319B62AB1
:10054C00FA1FF8137808F2007C08F1007D08F0001F
:10055C000030BB2A01304521BB2A02306F20BB2A58
:0E056C0004309720BB2A0830A32000000800AE
:10057A0083120313E901EA016408EB006508EC0041
:10058A0080306506F00080307002031DCE2A0030EC
:10059A0064020318DC2A0130E9000030EA0064082A
:1005AA00003CEB006508031C013EEC01EC026B0801
:1005BA00ED006C08EE006608EF00E52006308312B5
:1005CA000313E7000030E8006808003C031DEF2A27
:1005DA006708003C03180A2B67086607F200013017
:1005EA006702F0000030031C013E6802F100700847
:1005FA00660784000008F000720884007008800012
:10060A000130E702031CE803E92A66088400203067
:10061A00800069086A040319282BE701E8016708C2
:10062A00660784000008203A031D1F2BE70A0319F6
:10063A00E80A142B0130E702031CE803670866077F
:08064A0084002D30800008003F
:10065200831203137008F8007108F000F101F2012F
:10066200F301FB01FC019630F300FA017008F1007E
:0C0672007808F000F801F201AF20080049
:10067E00C330831203139F05C0309F006408F0003F
:10068E00F00D7010F00D701070089F043009F0001E
:10069E00700883169F059F1783121F14DE209F1468
:1006AE009F1C5B2B0000572B1F101E08F100F00142
:0C06BE0083161E08F0040030F104080050
:1006CA008312031372087606A000F801F901730871
:1006DA007702031C882B7708FD007308F7007D0852
:1006EA00F3007608FD007208F6007D08F20075082E
:1006FA00FD007108F5007D08F1007408FD0070081E
:10070A00F4007D08F00077080319012C7208FA003A
:10071A00F217F61777087302F7000319BB2B083094
:10072A007702031CB12BF7007408F9007508F4006E
:10073A007608F500F60108307702031CB12BF700A2
:10074A007408F9007508F400F50108307702031CF3
:10075A00B12B7A08F200012C77080319BB2B03107E
:10076A00F60CF50CF40CF90CF70BB42BA01FC82BE4
:10077A00F909F409F509F609F90A0319F40A03193A
:10078A00F50A0319F60A7908F80774080318740FAA
:10079A00F00775080318750FF10776080318760F26
:1007AA00F207A01BE12B031CF12BF20CF10CF00C4D
:1007BA00F80CF30FF12BFD2B0318F52BF809F009B0
:1007CA00F109F209F80A0319F00A0319F10A0319DF
:1007DA00F20A8030FA06F92B0130FC004821032C7A
:1007EA000230FC004821032C0430FC00AF20032C0B
:1007FA000830FC009720032C0030FC0000000800A1
:10080A00A2218A110A128000840AD90A0319DA0A73
:08081A00F003031D052C08008A
:10082200232C803083120313E400362CC030E40002
:10083200362C9430E400362CD430E400362C803050
:10084200E400362C831203136408013A0319122CB4
:100852006408023A0319172C6408033A03191A2C84
:100862006408043A03191D2C202C6503F000640867
:10087200F0077008E40070088316A20018206310C5
:10088200E70167086607840000080319502C67080F
:10089200660784000008ED002F21E70A422C63144A
:0208A20008004C
:1008A40083160313091109100812881208138813F8
:1008B40083120911091088130813881208120D20D5
:1008C4000D200D20881608160915032009110D2086
:1008D4000915032009110D200915032009110D2004
:1008E40008120915032009110D2009150320091107
:1008F400881288170915032009110D20881308167A
:1009040009150320091108120915032009110D20E6
:1009140009150320091108160915032009110D20D2
:1009240008120915032009118817081788160816D4
:0C0934000915032009110D2063140800B0
:1009400083120313FB017308031D77080319F72CA7
:1009500072087606FA007708F3077E30031CB42C81
:10096000F3020318FA2CB72CF302031CFD2C7208B7
:10097000F8007108FC007008FD00F817F617031066
:10098000F201F101F0011830A0007D1CD12C740897
:10099000F00775080318750FF10776080318760F2E
:1009A000F207F20CF10CF00CF80CFC0CFD0C03102F
:1009B000A00BC52CF21BE12CF80DF00DF10DF20D82
:1009C000F3037B1B701CF32CF81FF32CF00A0319A4
:1009D000F10A0319F20A031DF32CF20CF10CF00CCE
:1009E000F30A0319FA2CFA1FF2130030FF2C01301E
:1009F0006F20FF2C02309720FF2C0430A320000032
:020A00000800EC
:100A0200132D803083120313E400262DC030E4003E
:100A1200262D9430E400262DD430E400262D80309B
:100A2200E400262D831203136408013A0319022DF0
:100A32006408023A0319072D6408033A03190A2DC0
:100A42006408043A03190D2D102D6503F0006408A3
:100A5200F0077008E400631470088316A2001820DF
:0E0A6200631066088316A200182063140800B3
:100A70002E270330831603178800FF3003138500E9
:100A8000031789017F3081050313870183128701D2
:100A9000522401308316A20018200C308316A200C5
:100AA00018200130E4000130E5002130E600112477
:100AB0000230E4000130E5003130E6001124861BED
:100AC0006A2D01308316A20018200130CD000030BD
:100AD000CE00742D061B742D01308316A200182041
:100AE0000230CD000030CE0000304E06031D7A2DBE
:100AF00001304D06031D732E861B872D0130831692
:100B0000A20018200130CB000030CC009C2D061B29
:100B1000922D01308316A20018200230CB00003045
:100B2000CC009C2D861A9C2D01308316A200182023
:100B30000330CB000030CC00CF01D001D101D20175
:100B4000D701D80100305802031DA82DFF305702ED
:100B50000318C22DE4013F2329234F08F400500855
:100B6000F5005108F6005208F70065237008CF0021
:100B70007108D0007208D1007308D200D70A031997
:100B8000D80AA22D0030F4000030F5007F30F600C6
:100B90008630F7004F08F0005008F1005108F200CD
:100BA0005208F30006220030F4000030F500203037
:100BB000F6008130F700A0240030F4000030F5008A
:100BC0002030F6008230F70006227008D30071084A
:100BD000D4007208D5007308D60000304C06031DFF
:100BE000F32D02304B06031D212E5308F00054084C
:100BF000F1005508F2005608F3000030F400003010
:100C0000F5001030F6008230F700A0240030F40028
:100C10000030F5002030F6008130F7000622003069
:100C2000F4000030F5000030F6008430F700652352
:100C30007008D3007108D4007208D5007308D6007C
:100C4000422E00304C06031D272E03304B06031D99
:100C5000422E5308F0005408F1005508F2005608DF
:100C6000F3000030F4008030F5000830F6008730E3
:100C7000F70065237008D3007108D4007208D5000E
:100C80007308D6005308F0005408F1005508F2002C
:100C90005608F300A9217008E4007108E5005B30F4
:100CA000E600BD220130E4000430E5005B30E600E0
:100CB00011240230E4000130E5003830E600112450
:100CC0008230FC00DD30FD00FD0B642EFC0B642E39
:100CD00000000000061A722E01308316A2001820B0
:100CE000CD01CE01742D00304E06031D792E023049
:100CF0004D06031DEE2E0130E4003F2370088312E1
:100D0000C9007108CA007008F2007108F300F20D02
:100D1000F30D7210F20DF30D7210F20DF30D72104F
:100D20007208F0007308F100FF30F400F50176203E
:100D30007008C9007108CA000130D7000030D8001F
:100D400000305802031DA62E203057020318E52E4E
:100D50004A085802031DAE2E49085702031CC92E2B
:100D600000305802031DB62E113057020318C02E52
:100D70000130E4005708E5002030E6000125C82EC8
:100D80000230E40010305702E5002030E600012573
:100D9000E12E00305802031DCF2E113057020318E8
:100DA000D92E0130E4005708E500FF30E6000125A8
:100DB000E12E0230E40010305702E500FF30E6007B
:100DC0000125D70A0319D80AA02E061AED2E0130E4
:100DD0008316A2001820CD01CE01732E512DEF2EC7
:100E5C0021308400383083120313F000F530D900B0
:080E6C000630DA00052408003D
:100DEA0031342E342034543465346D3470346534DF
:0E0DFA007234613474347534723461340034F0
:020E0800303484
:0E0E0A0032342E3420344C3475347A340034B3
:100E180031342E344334203432342E3446342034A2
:100E280033342E344B34203434342E343C342D3483
:020E3800003484
:040E3A00003400344C
:040E3E000134003447
:040E42000034003444
:080E46000034003400340034D4
:080E4E000034003400340034CC
:040E56000034003430
:04400E00F42F000784
:00000001FF
