:020000002F28A7
:0E000600831203132D088A002C0882000800C4
:1000140003208A110A128000840AAC0A0319AD0A6B
:08002400F003031D0A28080087
:10002C00831203137008F100F0010830FC00710812
:10003C00F40C03182528FC0B1E28F10100340310C6
:10004C002A28F40C0318F107F10CF00CFC0B2728F0
:02005C0008009A
:10005E00773083120313A0001430A100B330A20036
:10006E00B630A300D430A400E630A500E730A600D9
:10007E003430A700F730A800F430A9000130AA00F0
:10008E00AB01831687017F30810503178901FF308D
:10009E0083120313860086185628870152282B08D0
:1000AE00203E8400000887000330FB000830FC006F
:1000BE007730FD00FD0B6128FC0B6128FB0B6128DE
:1000CE00861B7D282A08F000FF30F40016207008E9
:1000DE00AA000230FB000430FC00BA30FD00FD0B1C
:1000EE007628FC0B7628FB0B762800002A08013AAE
:1000FE00031D922806198528AB038628AB0A2B0808
:10010E000A3A031D8C28AB0192282B08FF3A031DD7
:0A011E0092280930AB005228932804
:04400E00F22F000786
:00000001FF
