:02000000512885
:0E000600831203132D088A002C0882000800C4
:1000140003208A110A128000840AAC0A0319AD0A6B
:08002400F003031D0A28080087
:10002C0083120313881008112E08031941282B087A
:10003C00213E84000008870088140D30FC00FB3042
:10004C00FD00FD0B2728FC0B272800000000881062
:10005C002008213E84000008870008150D30FC00A4
:10006C00FB30FD00FD0B3828FC0B3828000000008D
:08007C000811AE031A28080068
:1000840083120313AB0A2B080A3A031D5028AB0151
:0E009400A00A20080A3A031D5028A001080007
:1000A20083120313A0010830A1005E30A2001130B8
:1000B200A3001230A4004630A5002230A600203052
:1000C200A7001E30A800A9010630AA00AB018316C2
:1000D2008701F93088007F308105031789010130DB
:1000E20083120313860006308800061C79284220FA
:0A00F2001930AE00162076287D2894
:04400E00F22F000786
:00000001FF
